:020000040800F2
:10000000B006002089010008910100089301000852
:100010009501000897010008990100080000000000
:100020000000000000000000000000009B0100082C
:100030009D010008000000009F010008A1010008C8
:10004000A3010008A3010008A3010008A301000800
:10005000A3010008A3010008A3010008A3010008F0
:10006000A3010008A3010008A3010008A3010008E0
:10007000A3010008A3010008A3010008A3010008D0
:10008000A3010008A3010008A3010008A3010008C0
:10009000A3010008A3010008A3010008A3010008B0
:1000A000A3010008A3010008A3010008A3010008A0
:1000B000010D0008A3010008A3010008A301000826
:1000C000A3010008A3010008A3010008A301000880
:1000D000A3010008A3010008A3010008A301000870
:1000E000A3010008A3010008A301000800F002F822
:1000F00000F03AF80AA090E8000C82448344AAF188
:100100000107DA4501D100F02FF8AFF2090EBAE885
:100110000F0013F0010F18BFFB1A43F0010318473B
:100120000817000028170000103A24BF78C878C1CB
:10013000FAD8520724BF30C830C144BF04680C60ED
:10014000704700000023002400250026103A28BF35
:1001500078C1FBD8520728BF30C148BF0B60704739
:100160001FB51FBD10B510BD00F031F81146FFF7E7
:10017000F7FF00F0ADFF00F04FF803B4FFF7F2FF18
:1001800003BC00F057F800000948804709480047C1
:10019000FEE7FEE7FEE7FEE7FEE7FEE7FEE7FEE737
:1001A000FEE7FEE704480549054A064B7047000094
:1001B000A10C0008ED000008B0000020B0060020EF
:1001C000B0020020B00200207047704770477546AB
:1001D00000F02CF8AE4605006946534620F00700B3
:1001E000854618B020B5FFF7DDFFBDE820404FF091
:1001F00000064FF000074FF000084FF0000B21F011
:100200000701AC46ACE8C009ACE8C009ACE8C009DD
:10021000ACE8C0098D46704710B50446AFF30080C6
:100220002046BDE81040FFF7A8BF00000048704717
:100230004C00002001491820ABBEFEE7260002005A
:100240007047000010B54FF48041024800F06FF98C
:1002500010BD0000000C014010B54FF48041024871
:1002600000F063F910BD0000000C014000B503462A
:1002700003E04FF47A7000F005F8181EA3F10103B3
:10028000F7D100BD00EBC001C9004FF0E022516181
:10029000002191610521116100BF4FF0E021096942
:1002A00001F480310029F8D004214FF0E0221161DF
:1002B000704710B500F0F4FA10BD000010B500F062
:1002C00059FA0DA20221012000F0B8FB0DA2012174
:1002D000022000F0B3FB012409E00EA22146032016
:1002E00000F0ACFB3220FFF7C1FF601CC4B2102C41
:1002F000F3DD00F03FFA10BD57656C636F6D65204C
:10030000746F000044697374616E6365204D657499
:10031000657200003E00000070B504460D461646AA
:100320002A480088844201DD284804802848008843
:10033000844203DA002C01DD2548048025A2012136
:10034000084600F07BFB28A20121022000F076FB8A
:10035000032322460621022000F04EFB24A209219D
:10036000022000F06BFB23A20121032000F066FBBA
:1003700003232A460721184600F03EFB1CA20A214F
:10038000032000F05BFB0EB11CA000E01CA00246A5
:100390000D21032000F052FB1AA20121042000F0DD
:1003A0004DFB0323094802880521042000F024FBAB
:1003B00016A20921042000F041FB0323044802880F
:1003C0000D21042000F018FB70BD00001400002077
:1003D0001600002044697374616E6365204D6F6E72
:1003E00069746F7200000000446973743A00000081
:1003F000636D0000416C61726D3A00004F4E200049
:100400004F4646004D61783A000000004D696E3A53
:10041000000000002DE9F0410246002500260020E2
:1004200000230024002791F803C00CF00F0591F879
:1004300003C00CF0100CBCF1000F03D091F802C007
:100440004CEA050591F800C0BCF1000F31D01468EA
:1004500000202BE04FF0010C0CFA00F3B1F800C0C3
:100460000CEA03069E4220D183004FF00F0C0CFAD9
:1004700003F7BC4305FA03FC4CEA040491F803C0FB
:10048000BCF1280F06D14FF0010C0CFA00FCC2F8A9
:1004900014C00AE091F803C0BCF1480F05D14FF039
:1004A000010C0CFA00FCC2F810C0401C0828D1D383
:1004B0001460B1F800C0BCF1FF0F34DD54680020B7
:1004C0002EE000F1080C4FF0010808FA0CF3B1F827
:1004D00000C00CEA03069E4221D183004FF00F0CAE
:1004E0000CFA03F7BC4305FA03FC4CEA040491F848
:1004F00003C0BCF1280F05D100F1080C08FA0CF874
:10050000C2F8148091F803C0BCF1480F07D100F184
:10051000080C4FF0010808FA0CF8C2F81080401CD3
:100520000828CED35460BDE8F08141617047016175
:1005300070470AB1016100E04161704770B5002564
:1005400000BF00F033F81648006820F070401449EE
:1005500008600846006840F000400860012011492A
:1005600008601420FFF78EFE00200F49C1F89801A3
:1005700000BF0C487C3800680028FAD003E00A204D
:10058000FFF780FE6D1C07487C3800680128F6D014
:1005900005EB850044003A20B4FBF0F4204670BD22
:1005A00000080140980121420000214208B50121C4
:1005B000042000F087FAC020ADF8000010208DF86C
:1005C000030003208DF8020069460448FFF722FF6C
:1005D000C0210248FFF7ABFF08BD00000008014042
:1005E0002B480068C8B92B480068401C294908609E
:1005F00008460068052800D2704727480078002880
:1006000044D10120244908702448006808B9012019
:1006100000E000202149086038E01D4808300068EB
:10062000A8B91C480068401C1A49086008460068C0
:10063000052800D2E0E71848007808BB01201649D9
:10064000087017480068401C154908601EE01048F3
:1006500010300068A8B90F480068401C0D490860B8
:1006600008460068052800D2C6E70B48007838B96C
:100670000120094908700A480068401E08490860BE
:1006800004E00020044908700249086000BFB3E795
:100690000001214224000020200000201C00002036
:1006A0001800002008B50121042000F00BFA4820B2
:1006B0008DF803001520ADF8000003208DF802002E
:1006C00069460248FFF7A6FE08BD00000008014089
:1006D00008B50121082000F0F5F910208DF803007D
:1006E0008002ADF8000003208DF80200694604483E
:1006F000FFF790FE4FF480410148FFF718FF08BD57
:10070000000C014070B5002100230F22C47804B30F
:10071000154C246804F4E064C4F5E064210AC1F1D6
:100720000403CA40447804FA03F184781440214356
:1007300009010E4C0678A155047804F01F05012428
:10074000AC4005786D11AD0005F1E025C5F800411C
:1007500009E0047804F01F050124AC40044D06783C
:10076000761145F8264070BD0CED00E000E400E095
:1007700080E100E070B500240EE00021204600F08A
:10078000F0F8002504E0002000F07CF9681CC5B2F8
:10079000802DF8DB601CC4B2082CEEDB70BD0000BD
:1007A00008B50121082000F08DF914208DF8030010
:1007B00003208DF802004FF48070ADF80000694608
:1007C0000A48FFF727FE4FF40070ADF800006946B5
:1007D0000648FFF71FFE012211020448FFF7A9FE99
:1007E000012251020148FFF7A4FE08BD000C0140A0
:1007F00070B50546002415E08020204100EA05027E
:100800004FF400710E48FFF794FE012211020C48CC
:10081000FFF78FFE00224FF480710948FFF789FE31
:10082000601CC4B2082CE7DB012211020448FFF768
:1008300080FE00224FF480710148FFF77AFE70BD00
:10084000000C014010B5012251020A48FFF771FE69
:10085000012211020748FFF76CFE00224FF40071DD
:100860000448FFF766FE00224FF480710148FFF74D
:1008700060FE10BD000C014010B500224FF4007165
:100880000648FFF756FE012211020448FFF751FE09
:10089000012251020148FFF74CFE10BD000C01403F
:1008A00070B5002406E0002500E06D1CB5F57A7FE8
:1008B000FBD3641CB4F57A7FF5D3FFF771FFAE204C
:1008C00000F0D0F8D52000F0CDF8802000F0CAF874
:1008D000A82000F0C7F83F2000F0C4F8D32000F0B3
:1008E000C1F8002000F0BEF8402000F0BBF8A120C5
:1008F00000F0B8F8C82000F0B5F8DA2000F0B2F83F
:10090000122000F0AFF8812000F0ACF8CF2000F00A
:10091000A9F8D92000F0A6F8F12000F0A3F8DB2018
:1009200000F0A0F8302000F09DF8A42000F09AF824
:10093000A62000F097F88D2000F094F8142000F025
:1009400091F8AF2000F08EF8FFF714FF70BD10B5DE
:100950000246012000E050430B1EA1F10101FAD133
:1009600010BD70B505460C4645F0B00000F07AF8B1
:10097000102141EA141000F075F804F00F0000F0A7
:1009800071F870BD2DE9F04105460E461746721EFE
:10099000D206110E6A1E5206100EFFF7E2FF002467
:1009A00009E0A7F12001134A02EB0111085D00F0F4
:1009B00069F8601CC4B2082CF3DB721ED206110E5B
:1009C0006A1E012303EB4202D0B2FFF7CAFF0024E4
:1009D0000BE0A7F12001074A02EB011204F1080124
:1009E000505C00F04FF8601CC4B2082CF1DBBDE88D
:1009F000F0810000381200082DE9F04780460E46CD
:100A000017461D46002415E0281B411E0A20FFF74B
:100A10009EFFB7FBF0F00A21B0FBF1F201FB1200E0
:100A200000F130093019C1B24A464046FFF7AAFF2B
:100A3000601CC4B2AC42E7DBBDE8F0872DE9F041B1
:100A400007460E461546002407E02A5D3019C1B25C
:100A50003846FFF797FF601CC4B2285D0028F4D128
:100A6000BDE8F08110B50446FFF7ECFE7820FFF7F3
:100A7000BFFE0020FFF7BCFE2046FFF7B9FEFFF7E0
:100A8000FBFE10BD10B50446FFF7DCFE7820FFF733
:100A9000AFFE4020FFF7ACFE2046FFF7A9FEFFF7B0
:100AA000EBFE10BD29B1064AD2690243044BDA615C
:100AB00004E0034AD2698243014BDA6170470000C7
:100AC0000010024029B1064A92690243044B9A6120
:100AD00004E0034A92698243014B9A617047000027
:100AE0000010024030B500210022002400232D4DCB
:100AF0006D6805F00C0121B1042905D0082923D126
:100B000005E0294D056022E0274D05601FE0254DD9
:100B10006D6805F47012234D6D6805F4803402256C
:100B200005EB92421CB9214D554305600BE01D4D6C
:100B30006D6805F400351DB11C4D5543056002E09C
:100B4000194D5543056002E0174D056000BF00BF19
:100B5000144D6D6805F0F0010909154D6B5C0568D1
:100B6000DD4045600F4D6D6805F4E061090A104DE8
:100B70006B5C4568DD4085600A4D6D6805F4605129
:100B8000C90A0B4D6B5C4568DD40C560054D6D685D
:100B900005F44041890B074D6B5CC568B5FBF3F567
:100BA000056130BD0010024000127A0000093D00CE
:100BB000000000201000002010B500F001F810BD6A
:100BC0000CB50020019000903348006840F480305C
:100BD0003149086000BF3048006800F400300090E0
:100BE0000198401C0190009818B90198B0F5A06FC9
:100BF000F1D12948006800F4003010B101200090C4
:100C000001E0002000900098012843D123480068AB
:100C100040F01000214908600846006820F00300F9
:100C200008600846006840F0020008601A48406802
:100C3000194948600846406848600846406840F4E2
:100C4000806048600846406820F47C104860084690
:100C5000406840F4E81048600846006840F0807042
:100C6000086000BF0C48006800F000700028F9D050
:100C70000948406820F0030007494860084640687A
:100C800040F00200486000BF0348406800F00C00DC
:100C90000828F9D10CBD00000010024000200240DD
:100CA00010B51348006840F001001149086008467B
:100CB0004068104908400E494860084600680E49DF
:100CC00008400B4908600846006820F4802008604E
:100CD0000846406820F4FE0048604FF41F0088601A
:100CE000FFF76AFF4FF000600449086010BD000084
:100CF000001002400000FFF8FFFFF6FE08ED00E0E4
:100D000010B50121880700F066F818B31248006991
:100D1000401C1149086108464068401C486008466C
:100D20008069401C886108464068642803D9012016
:100D30000872002048600848006940F6C4118842E3
:100D400004D30120044908750020086101218807A7
:100D500000F032F810BD0000280000207FB50546E5
:100D60000C4601210846FFF79DFEADF80850ADF88E
:100D700004400020ADF80A00ADF8060001A94FF0CC
:100D8000804000F043F801221146900700F034F84B
:100D90001C208DF8000002208DF8010003208DF842
:100DA000020001208DF803006846FFF7ABFC01212B
:100DB000880700F004F87FBDCA430282704721B162
:100DC000028842F00102028004E002884FF6FE73BE
:100DD0001A400280704730B50246002000230024EC
:100DE000158A05EA0103958905EA010413B10CB1DE
:100DF000012000E0002030BD1AB183890B438381BC
:100E000002E083898B4383817047000000220288BF
:100E10001D4B98420ED01D4B98420BD0B0F1804F25
:100E200008D01B4B984205D01A4B984202D01A4B5F
:100E3000984204D14FF68F731A404B881A43174BD0
:100E4000984207D0164B984204D04FF6FF431A4001
:100E5000CB881A4302808B8883850B8803850A4BD5
:100E600098420BD0094B984208D00E4B984205D0BF
:100E70000D4B984202D00D4B984201D10B7A03865C
:100E80000123838270470000002C014000340140A0
:100E90000004004000080040000C0040001000402A
:100EA000001400400040014000440140004801405F
:100EB00000B585B001218803FFF704FE012104205D
:100EC000FFF700FE18208DF813004FF40070ADF806
:100ED000100003208DF8120004A91348FFF79AFAB6
:100EE00004208DF813000002ADF8100004A90E488C
:100EF000FFF790FA4FF4E13000900020ADF80400C5
:100F0000ADF80600ADF80800ADF80C000C20ADF807
:100F10000A006946054800F06BF80121034800F01B
:100F20004DF805B000BD0000000801400038014048
:100F300070B505460E46002404E0285D00F006F872
:100F4000601C84B2B442F8DB70BD000010B50446EA
:100F50002146054800F0B8F800BF8021024800F0A3
:100F600039F80028F9D010BD00380140FEB504461C
:100F70000D4600260EE00A20B4FBF0F100FB114004
:100F80003030A91B491E0DF801000A20B4FBF0F413
:100F9000701CC6B2AE42EEDB29466846FFF7C8FFBA
:100FA000FEBD70B50446002504E0605DFFF7CEFF8E
:100FB000681CC5B2605D0028F7D170BD21B182897F
:100FC00042F40052828104E082894DF6FF731A4098
:100FD0008281704702460020B1F5007F00D100BF3A
:100FE00013880B400BB1012000E000207047000087
:100FF0002DE9F04786B005460E460024A24600BF04
:10100000A1460027B08900B100BF2F462C8A4CF6BC
:10101000FF700440F08804432C82AC894EF6F31034
:101020000440B08831890843718908430443AC8186
:10103000AC8A4FF6FF400440B0890443AC8201A85B
:10104000FFF750FD1F48874202D1DDF810A001E0F4
:10105000DDF80CA0A88900F4004040B10AEBCA00FA
:1010600000EB0A1031684900B0FBF1F807E00AEB29
:10107000CA0000EB0A1031688900B0FBF1F8642067
:10108000B8FBF0F004012009642101FB1089A88954
:1010900000F4004040B1322000EBC900B0FBF1F099
:1010A00000F00700044308E0322000EB091064213F
:1010B000B0FBF1F000F00F0004432C8106B0BDE856
:1010C000F087000000380140C1F3080282807047B9
:1010D00048216420FFF742FEFFF7FAFAFFF7E9F82C
:1010E000FFF7E0FAFFF7E4FEFFF7E8F825A0FFF7C7
:1010F00058FF2DA0FFF755FF33A0FFF752FF3FE049
:101100003A48007D012839D1002038490875FFF799
:1011100015FA84B2364802783648008881B22046F3
:10112000FFF7FAF834A0FFF73CFF03212046FFF752
:101130001DFF35A0FFF735FF03212E480068FFF79C
:1011400015FF35A0FFF72DFF2949096809B136A120
:1011500000E036A10846FFF724FF35A0FFF721FF86
:1011600024480068844206D221480068012802D140
:10117000FFF772F801E0FFF765F800BFFFF730FAFC
:10118000BEE700000D0A3D3D3D3D3D3D3D3D3D3D41
:101190003D3D3D3D3D3D3D3D3D3D3D3D3D3D3D3D7F
:1011A0003D3D0D0A00000000202044697374616E0B
:1011B0006365204D6561737572656D656E7420534E
:1011C000797374656D0D0A003D3D3D3D3D3D3D3DEE
:1011D0003D3D3D3D3D3D3D3D3D3D3D3D3D3D3D3D3F
:1011E0003D3D3D3D0D0A0D0A000000002800002095
:1011F0001C000020180000207C2044697374616E7C
:1012000063653A200000000020636D207C20416C63
:1012100061726D3A2000000020636D207C205374C1
:10122000617475733A2000004F4E20004F4646000F
:10123000207C0D0A000000000000000000000000FB
:101240000000000000000000000000F800000000A6
:10125000000000333000000000100C06100C0600E7
:10126000000000000000000040C07840C07840004E
:10127000043F04043F040400007088FC08300000B0
:10128000001820FF211E0000F008F000E018000008
:1012900000211C031E211E0000F0088870000000C1
:1012A0001E2123241927211010160E000000000013
:1012B0000000000000000000000000E01804020030
:1012C000000000071820400000020418E0000000A1
:1012D0000040201807000000404080F0804040009F
:1012E0000202010F01020200000000F000000000F5
:1012F0000101011F010101000000000000000000C9
:1013000080B070000000000000000000000000003D
:1013100000010101010101010000000000000000C6
:101320000030300000000000000000008060180461
:10133000006018060100000000E010080810E0003E
:10134000000F102020100F00001010F80000000007
:101350000020203F2020000000700808088870004E
:1013600000302824222130000030088888483000CE
:101370000018202020110E000000C02010F80000EE
:1013800000070424243F240000F808888808080087
:101390000019212020110E0000E01088881800009C
:1013A000000F112020110E0000380808C83808006E
:1013B0000000003F000000000070880808887000EE
:1013C000001C222121221C0000E010080810E0006F
:1013D0000000312222110F00000000C0C0000000F8
:1013E000000000303000000000000080000000001D
:1013F0000000806000000000000080402010080015
:1014000000010204081020004040404040404000DD
:1014100004040404040404000008102040800000B8
:101420000020100804020100007048080808F000BD
:101430000000003036010000C030C828E810E0008D
:101440000718272423140B000000C038E000000018
:10145000203C23020227382008F888888870000082
:10146000203F202020110E00C03008080808380056
:10147000071820202010080008F808080810E000CD
:10148000203F202020100F0008F88888E80810006E
:10149000203F20202320180008F88888E808100042
:1014A000203F200003000000C0300808083800007A
:1014B00007182020221E020008F808000008F8087B
:1014C000203F210101213F20000808F80808000002
:1014D0000020203F2020000000000808F808080035
:1014E000C08080807F00000008F888C028180800AD
:1014F000203F20012638200008F8080000000000E6
:10150000203F20202020300008F8F800F8F80800DC
:10151000203F003F003F200008F830C00008F808D6
:10152000203F200007183F00E01008080810E000E6
:101530000F10202020100F0008F808080808F000FD
:10154000203F210101010000E01008080810E00020
:101550000F18242438504F0008F8888888887000B5
:10156000203F2000030C3020007088080808380055
:101570000038202121221C00180808F8080818004B
:101580000000203F2000000008F808000008F808CC
:10159000001F202020201F000878880000C838087D
:1015A000000007380E010000F80800F80008F800F5
:1015B000033C0700073C030008186880806818088F
:1015C00020302C03032C30200838C800C83808000D
:1015D0000000203F2000000010080808C83808005C
:1015E0002038262120201800000000FE0202020000
:1015F0000000007F40404000000C30C000000000B0
:10160000000000010638C00000020202FE000000D7
:10161000004040407F00000000000402020204007D
:1016200000000000000000000000000000000000BA
:1016300080808080808080800002020400000000A2
:10164000000000000000000000008080808000009A
:101650000019242222223F2008F800808000000088
:10166000003F112020110E0000000080808000004B
:10167000000E112020201100000000808088F8005A
:10168000000E112020103F2000008080808000008C
:10169000001F222222221300008080F088888818F0
:1016A0000020203F202000000000808080808000FB
:1016B000006B94949493600008F800808080000090
:1016C000203F210000203F2000809898000000006B
:1016D0000020203F2020000000000080989800009B
:1016E00000C08080807F000008F8000080808000BB
:1016F000203F24022D302000000808F800000000E0
:101700000020203F2020000080808080808080009A
:10171000203F20003F20003F80800080808000002C
:10172000203F210000203F200000808080800000BA
:10173000001F202020201F008080008080000000EB
:1017400080FFA12020110E0000000080808080001A
:10175000000E112020A0FF8080808000808080000B
:1017600020203F2120000100000080808080800038
:101770000033242424241900008080E080800000AD
:101780000000001F202000008080000000808000FA
:10179000001F202020103F2080808000008080805B
:1017A00000010E30080601008080008000808080EB
:1017B0000F300C030C300F00008080008080800010
:1017C0000020312E0E31200080808000008080803B
:1017D00080818E70180601000080808080808000EB
:1017E0000021302C2221300000000000807C020209
:1017F00000000000003F404000000000FF0000002B
:1018000000000000FF0000000002027C80000000D9
:101810000040403F000000000006010102020404F5
:101820000000000000000000481800080000002030
:101830002800000028010008701800082800002077
:1018400088060000440100080000000001020304B3
:1018500001020304060708090204060800000F2716
:101860001400000001000000000000000000000063
:04000005080000ED02
:00000001FF
